:102000000080002059C70000A5C5000041C700009E
:1020100000000000000000000000000000000000C0
:1020200000000000000000000000000041C70000A8
:10203000000000000000000041C70000ADC7000024
:1020400041C7000041C7000041C70000E56800002B
:1020500069C5000041C70000D960000045C7000005
:1020600041C7000065A2000041C7000041C7000051
:10207000955C000041C7000075A2000041C7000048
:1020800041C7000041C7000041C7000041C7000030
:1020900029AE000041C7000041C70000956800005C
:1020A00041C7000041C7000041C7000041C7000010
:1020B0000000000010B5064C2378002B07D1054B1B
:1020C000002B02D0044800E000BF0123237010BDA4
:1020D000000300200000000068690100044B10B5F7
:1020E000002B03D00349044800E000BF10BDC046E8
:1020F000000000000403002068690100DA2310B525
:102100000400DB00C01807F066FF094BE01807F079
:1021100016FDC223DB00E0180AF069FA20000C303B
:102120000AF065FA20000AF062FA200010BDC046ED
:102130005C060000962110B5124C8901200008F0C1
:1021400045FFFA2040000AF075FB0F49200008F017
:102150000DF900230D4A0E4C13700E4A2000136037
:102160000D4A13600D4A136001220D4BE25403F037
:10217000F9F8200001F06CFBC723DB00E0580FF0FA
:102180008DF910BDF414002020450100200A002024
:1021900020030020080A00201C030020100A002051
:1021A00043060000F8B50E1C0BF042FF051CFE2094
:1021B000311C80050BF00EFD291C0BF0F1FB041CFB
:1021C0000FF090F9FE2107008905301C0BF04CFA46
:1021D000291C0BF0E5FB211C0BF0FCFCFE21890502
:1021E0000BF042FA0BF0BEFE010038000BF0DAF9FA
:1021F00008000BF0D7FE211C0BF036FA02490BF059
:10220000CFFB0BF0AFFEF8BD00007A4430B50F4CA9
:1022100085B020000E490AF032FA0E4D20002A0047
:102220000D490AF0FFFE210001A80AF04BFA0B4C01
:1022300001A9200000F05EFD01A80AF0D8F92A00EB
:10224000200007490AF0EEFE05B030BD140A002058
:102250002C45010000000020EFC5000020030020F5
:10226000FD200000F0B587B00AF0AEFA04900AF045
:10227000B1FAA74C0590200001F0EAFAA54BE75C03
:10228000A54BE35C0293002F02D0200001F0D6FDA5
:10229000029B002B02D0200001F010FE9F4D635DD9
:1022A000002B0DD19E499F480AF016FA002F02D14B
:1022B000029B002B04D001220021200001F050FFDE
:1022C000665D731E022B2DD8012E06D196499548C6
:1022D0000AF002FABC23DB00E650635D022B07D153
:1022E000924990480AF0F8F9BC230322DB00E2503F
:1022F000635D032B07D18E498A480AF0EDF9BC23B0
:102300000522DB00E250002F0CD0BD23DB00E0589B
:10231000083BE1580BF046F9002903D101222000C7
:1023200001F01EFF635D1A1F022A2ED8042B07D16D
:1023300080497C480AF0D0F9BC230122DB00E2503E
:10234000635D052B07D17C4976480AF0C5F9BC23AB
:102350000322DB00E250635D062B07D17749714809
:102360000AF0BAF9BC230522DB00E250029B002BE5
:102370000BD0734BE0580C3BE1580BF013F90029DC
:1023800003D10122200001F0EBFE635DDA1F022A77
:102390002DD8072B03D16B4962480AF09DF9635D84
:1023A000082B03D168495F480AF096F9635D092B51
:1023B00003D166495B480AF08FF9625DD31FDBB237
:1023C000072A16D01600093E71424E41F6B2012B83
:1023D00011D15F4A1268002A19D1002F00D192E072
:1023E00001225B4B002120001A6001F0B9FE07B00A
:1023F000F0BD0126EDE7092A08D1554A1268002AE6
:1024000002D1029A002AEBD1012600E00026514DAC
:102410002A780392002A52D00AF0D6F9049BC71AF0
:102420000AF0D8F9FA214C4C059B8900C61A23689A
:10243000F61830000BF0B6F82160FA213000890060
:102440000AF0CAFF454CC7192368454EFF180123FF
:10245000276001930E331622552130000093373345
:1024600006F046FC2A493F4B3F4A404FCA50FA21EA
:102470003B6822688900981A0AF0AEFF0A22411CC4
:10248000300007F0A5FF3A49300007F05EFF30004A
:1024900007F0E6FA3B6822689A42A8DB0122002195
:1024A0001B4801F05DFE2A4A0121136801331360C5
:1024B0000023174A23602B702E4BD15497E7012B32
:1024C0000DD8002F0BD0FD211E208905FFF76AFED5
:1024D000264B039A186001232B70264BE254002EE2
:1024E00000D184E7029B002B00D180E7FD211E2054
:1024F0008905FFF757FE1D4B0022186001232B7042
:102500001C4BE25473E7002E00D07AE77FE7C04609
:1025100020030020FD050000FE050000E605000088
:102520002F4501002C030020344501003A450100ED
:1025300040450100464501004C450100524501005F
:10254000EC050000584501005E45010066450100AC
:10255000080A0020200A0020100A00201C03002086
:1025600094090020840600005A0024000C0A002070
:10257000BF47010041060000BFF34F8F034B044AE1
:10258000DA60BFF34F8FC046FDE7C04600ED00E0C4
:102590000400FA0500207047037C020000201B079E
:1025A00004D5D36A506A181A00D501487047C0464E
:1025B000FFFFFF7F37B505000C006846144904F0A3
:1025C000B7FB6A466B4690781278002114325B782C
:1025D0007F2A08D80C2B06D81F2804D85B01034398
:1025E0005202134399B26B466A46DB782980002079
:1025F00011795279172B09D83B2907D83B2A05D8DE
:10260000DB0249010B435210134398B2208037BDBF
:10261000280A002010B5103004F0FDFD10BD13B5E0
:102620006B46DC1D01222100103004F030FD012832
:1026300001D1207816BD01204042FBE710B51030D3
:1026400004F0E4FE10BD10B5103004F09DFF10BD85
:1026500007B56B46D971073301221900103004F019
:1026600093FF0EBD0023FA22436003828374024B62
:102670009200826003607047044A0100F8B5C827E1
:102680000D000124FF00AC4217DA0A263B00013B93
:10269000FDD101200AF07AFB002804D0013E002E73
:1026A000F4D10134EFE73B00013BFDD101200AF0FA
:1026B0006DFB0028F2D1012000E00020F8BDC82108
:1026C00010B508220020890008F0D8FA10BD0000DB
:1026D00073B5012106000D200AF02CFB02200AF040
:1026E000A9F800240C4BF35AA3420FD900220B483F
:1026F00021003518130028000192009207F0AFFB6B
:102700000134280007F07CFAA4B2EBE700210D2089
:102710000AF010FB73BDC0465E0600005C060000B8
:10272000F7B50F00019001210D2016000AF002FB01
:1027300002200AF07FF80024019B0C4821001D189C
:102740003A00280007F0B5FB0134280007F058FADA
:10275000A4B230000AF06EF8082CEDD100210D2053
:102760000AF0E8FA02200AF065F8F7BD5C060000FE
:10277000F8B50D0014001F000026BE420FD0012145
:1027800028000AF0D7FA20000AF054F800212800A7
:102790000AF0D0FA20000AF04DF80136EDE7F8BD56
:1027A00070B50C0016000025B54217DA01210E2085
:1027B0000AF0C0FA012108200AF0BCFA20000AF051
:1027C00039F800210E200AF0B5FA002108200AF09D
:1027D000B1FA20000AF02EF80135E5E770BD0000DF
:1027E000F0B501262A4B85B0C518040005236322E5
:1027F00019212800009606F0C7FC002363220093ED
:1028000019210533280006F051FB224BE35C002B15
:102810001ED0214BE75C002F1CD00123142403930E
:1028200052330293043B4B22210028000093019471
:10283000353B06F040FD002303933F330293043BF6
:1028400000933722210028000194213B06F033FD3C
:1028500005B0F0BD3F23039614260293043B3722B4
:102860003100280000930196213B06F024FD5323FC
:102870000293043B00934B22353B31002800039721
:10288000019606F018FD044BE35C002BE0D0C4E792
:1028900074060000E4050000FC05000070B50400AB
:1028A0000A4B0B4EC518280007F0A5F8094B280065
:1028B000A351094907F05AFD084B2800A3510849C4
:1028C00007F054FD280007F0CBF870BD7406000037
:1028D00084060000140028006E4501000A003C0038
:1028E000774501000E4B0F4A70B5C2500E4B0400E5
:1028F000C5180E4B0A22C158280007F088FD280091
:102900000B4907F022FDBB23DB00E1580A22280017
:1029100007F07DFD2800074907F017FD70BDC04690
:10292000840600002300410074060000D405000066
:10293000824501008A4501004B6830B543608B68D1
:102940008360CB681031C3600300103334C934C3D3
:1029500034C934C334C934C330BD000070B5040079
:1029600000210D200AF0E6F90B4D0C4BE618635DD3
:10297000002B08D030000A4907F0F8FC094BE0189A
:1029800004F096FD70BD3000074907F0EFFC635D71
:10299000002BF3D0EEE7C04644060000A40400007C
:1029A0008E450100B40400007A46010070B50400B1
:1029B0008EB000210D200AF0BDF901A8FFF752FEEC
:1029C0002100104A104B183105A804F0CFFD0F4B21
:1029D00001A9E6183000FFF7AFFF0D4B0021E51805
:1029E000280004F048FC0B4B0A22E158300007F0A5
:1029F00012FD280004F00AFD280004F059FD0EB075
:102A000070BDC04658470100024200000C0500009E
:102A10001C050000DC050000F8B5134B0400C35C86
:102A20000E00002B1ED1A027FFF738FFFF02002564
:102A3000AE420CD00223192208212000FFF798FE95
:102A4000192239002000FFF76BFE0135F0E7350051
:102A5000092DECD81922002120000135FFF760FE76
:102A6000EDB2F5E7F8BDC046BD050000F0B50600C3
:102A70008DB0344F01AD0C002800334904F058F9F3
:102A8000F05964210AF0A8FC3030E070F0590A21B6
:102A90000AF0A2FC30302071F0590A210AF082FDC0
:102AA0006F783031380061710A210AF00BFC303048
:102AB000E0710A2138000AF08BFCAF783031380021
:102AC00021720A210AF0FEFB303060720A213800C0
:102AD0000AF07EFC2D7830312800A1720A210AF01C
:102AE0007BFC3030E0720A2128000AF05BFD2E23C7
:102AF00000250A2723741533637410333031A3740F
:102B000003332173E374390028000AF0DBFB303013
:102B1000A073390028000AF05BFC30316A460023BC
:102B2000E1733100938193731831220003A804F0FC
:102B30001DFD002803D00135EDB2642DE3D10DB0A9
:102B4000F0BDC046DC050000280A002030B5002199
:102B50008FB004000D200AF0EDF8B523DB00E51876
:102B600029002000FFF782FF01A8FFF77BFD21006D
:102B70002A000A4B183105A804F0F8FC084B01A9FB
:102B8000E018FFF7D9FE074BE35C002B03D10321CC
:102B90002000FFF741FF0FB030BDC04602420000E9
:102BA000A4040000B404000010B504000A2009F0D9
:102BB000AFFF2D200AF016F80BF03AFA011C0AF0CC
:102BC00053FD0DF089F8074A074B0CF0DDF90DF0C5
:102BD000CBF8EA2189050AF0E3FEB823DB00E050D8
:102BE00010BDC0466666666666660A4010B504009B
:102BF00001200AF0CBF8012802D10022014BE25457
:102C000010BDC046FF05000010B5024B1868FFF765
:102C1000EDFF10BD240A002070B5050001200AF068
:102C2000B5F80400012806D106200AF0AFF8002804
:102C300001D1014BEC5470BDFD05000010B5024BF5
:102C40001868FFF7E9FF10BD240A002070B50500E1
:102C500001200AF09BF80400012806D105200AF0A3
:102C600095F8002801D1014BEC5470BDFE05000021
:102C700010B5024B1868FFF7E9FF10BD240A0020C9
:102C800010B50400002110200AF054F80021112092
:102C90000AF050F8002112200AF04CF8002113200D
:102CA0000AF048F8044BE35C002B03D000210D2010
:102CB0000AF040F810BDC0464106000010B50A4BAE
:102CC0000400C35C002B0BD0FFF7DAFF2000FFF7F6
:102CD000FFFC022009F0AEFD0449054803F0A5FD04
:102CE0002000FFF783FF10BD41060000881300009D
:102CF000AC0E0020F0B504002700584D87B00591B8
:102D0000290009F0BCFC290000250C37380009F027
:102D1000B6FC534BE577E552E3189D709023DB003A
:102D2000E550504A504B5149E2502A220433E552B3
:102D30004F4B0126E3189A744D4A1D749D75A1509E
:102D40001D774C4BE018FFF78DFC9B23DB00E01850
:102D5000FFF788FC484BE018FFF784FCA823DB0052
:102D6000E018FFF77FFC454BE018FFF77BFCFE22E5
:102D7000434B9205E5540333E250424B424AE5543B
:102D80000433E550414B4249E5500433E5501033DC
:102D9000E650404BE250C2220433E5503E4BD20095
:102DA000E5500433E5503D4BA018E5500433E550A1
:102DB0003B4BE65009F063FC80223A4B5200E55051
:102DC0000433E550384B0A21E5500433E550374BC6
:102DD000E5500433E550364BE5500433E550354BB0
:102DE000E5500433E250344BE5540433E550334BA3
:102DF000E6506C3BE2587033E250314BE258314BB5
:102E0000E2500433E552304B0F22E018D22307F092
:102E10000FF82E4B0B22E0182D4B0C210293A82308
:102E20000193183B0093863B06F088FD294B102246
:102E3000E01813230193013B27490093013B03F062
:102E40003FFBDA23DB00E01807F0C0F838000599F3
:102E500009F028FC200007B0F0BDC046694701001A
:102E60005C04000000093D008C040000F8560100DD
:102E700084040000A40400000C0500007405000098
:102E8000BD050000C405000001000101CC050000E3
:102E90006F470100E4050000EC050000F4050000A8
:102EA000FC0500001C060000240600002C060000A3
:102EB000340600003C060000440600004C060000FA
:102EC000DC050000540600005C06000074060000EB
:102ED00080841E00A4060000F6070000F0B505007F
:102EE0008FB00400183501A8FFF7BCFB334A290056
:102EF000334B05A804F03AFB9B23DB00E71801A93C
:102F00003800FFF719FD9D23DB00E6180021300093
:102F100004F0B1F92B4B0A22E15C380007F095FA76
:102F2000300004F073FA300004F0C2FA01A8FFF791
:102F300099FB254A2900224B05A804F017FBA8237A
:102F4000DB00E71801A93800FFF7F6FCAA23DB0035
:102F5000E6180021300004F08EF91C4B0A22E158DB
:102F6000380007F058FA300004F050FA300004F04E
:102F70009FFA01A8FFF776FB154A2900104B05A818
:102F800004F0F4FA134B01A9E6183000FFF7D4FC63
:102F9000114B0021E518280004F06DF9BB23DB007C
:102FA0000A22E158300007F036FA280004F02EFA21
:102FB000280004F07DFA0FB0F0BDC0467447010050
:102FC00002420000E605000080470100D405000031
:102FD0008A47010074050000840500007FB50024C5
:102FE00001AB19705C70184B0500C6183000230047
:102FF000019905F07AFC8D23DB00EE50134B200085
:10300000EB5CA34213D101223100280005F032F815
:103010000200A0420DD00E4BEC18200004F048FA3C
:103020002900200004F018F800280AD1002004B07C
:1030300070BD03003100280005F01CF80028EAD11B
:10304000F4E7044B1D60F2E76C0400007E0400000E
:1030500044040000B80E0020F0B504002500002153
:103060000D208FB0183509F065FE042128005C4A58
:10307000FFF7B4FF002803D102212000FFF7CCFCAA
:1030800001A8FFF7EFFA574F29003A00564B05A861
:1030900004F06CFA554B01A9E6183000FFF74CFC20
:1030A00001A8FFF7DFFA00233A00290005A804F081
:1030B0005DFA01A93000FFF73FFC0122002130003A
:1030C00007F08AFD4A4BE0504A4BE01804F0F0F953
:1030D00001A8FFF7C7FA484F29003A00424B05A85C
:1030E00004F044FA9B23DB00E61801A93000FFF747
:1030F00023FC01A8FFF7B6FA00233A00290005A82F
:1031000004F034FA01A93000FFF716FC0122002177
:10311000300007F061FD394BE054FE3BE01804F04D
:10312000C7F901A8FFF79EFA354F29003A002E4B48
:1031300005A804F01BFAA823DB00E61801A930005B
:10314000FFF7FAFB01A8FFF78DFA00233A002900E8
:1031500005A804F00BFA01A93000FFF7EDFB0122EE
:103160000021300007F038FD264BE050843BE0188A
:1031700004F09EF901A8FFF775FA234F29003A00E1
:10318000194B05A804F0F2F9204B01A9E61830000C
:10319000FFF7D2FB01A8FFF765FA00233A002900E8
:1031A00005A804F0E3F901A93000FFF7C5FB0122EF
:1031B0000021300007F010FDBB23DB00E050144B72
:1031C000E01804F075F9B523DB00E5182800114973
:1031D0000EF0E0F929002000FFF748FC0FB0F0BD29
:1031E00000093D0058470100024200000C050000A4
:1031F000DC0500001C05000074470100E605000026
:1032000080470100D40500008A47010074050000D2
:1032100084050000934701007FB502AD06002849F0
:10322000280003F085FD8722264B1204F418264B54
:103230000021F250012301933B337B2220000093B5
:103240008C3305F055FD0A226978200007F0F9F863
:103250001E4E2000310007F078F80A22A9782000DD
:1032600007F0EFF83100200007F06FF8FA23297813
:10327000DB00C9180A22200007F0C9F82000144911
:1032800007F063F8EB78092B03D83021200007F012
:1032900060F80A22E978200007F0D3F820000D49F1
:1032A00007F053F82B79092B03D83021200007F0C1
:1032B00050F829790A22200007F0C3F87FBDC046E4
:1032C000280A00207406000084060000A8470100B8
:1032D000AA470100C74701000C4B37B5C5180123A9
:1032E0000400019315332800009314220621B23301
:1032F00005F0FEFC064B074A28000749E25007F09C
:1033000024F8280006F0ACFB37BDC0467406000068
:103310008406000006002400B1470100104B37B5B9
:10332000C5180123040001930E3316225521009382
:103330002800373305F0DCFC0A4B0B4AE2500B4BFC
:10334000E1580B4B994207DC0A22280007F05FF88E
:103350002800084906F0F9FF280006F081FB37BD78
:1033600074060000840600005A0024001C060000B9
:1033700077E60000BE470100104B37B5C5180123A2
:10338000040001930E331622552100932800373391
:1033900005F0AEFC0A4B0B4AE250643BE1580A4B85
:1033A000994207DC0A22280007F031F82800074973
:1033B00006F0CBFF280006F053FB37BD7406000073
:1033C000840600005A0024000F270000BE470100B9
:1033D000104B37B5C5180123040001930E33162294
:1033E000552100932800373305F082FC0A4B0B4A25
:1033F000E2500B4BE1580B4B994207DC0A222800A4
:1034000007F005F82800084906F09FFF280006F09D
:1034100027FB37BD74060000840600005A00240014
:10342000240600000F270000BE470100B923F0B5B5
:10343000DB00874AC55885B002908418002D1BD147
:1034400001261023022275212000009301961833D3
:1034500005F04EFC122332007421200000930195E8
:10346000183305F079FC08230093023B1A009D21D4
:103470002000019505F070FCB823029ADB00D058BB
:103480000CF02AFCB923029ADB00D358714A1D00C4
:1034900003936B425D41704B06000F00EDB20AF0E2
:1034A000B1F8002800D16EE0002D00D16BE00026BD
:1034B0000C2507230422782120000196009505F0B1
:1034C00017FC07230422812120000196009505F0B6
:1034D0000FFC072304228A2120000196009505F0A5
:1034E00007FC07230422932101960095200005F094
:1034F000FFFB0221200006F0C9F9584F20003900D7
:1035000006F0CBF901250C23002256212000009360
:103510000195103305F0ECFB029A514B5149535081
:10352000B823DB00D0580CF0D7FB009502000B004D
:10353000200007F049F84C4E2000310006F0ADF9AC
:103540002900200006F0A2F9484B029AD35C002B18
:1035500017D02900200006F099F93900200006F064
:103560009CF9434B029A3F4920005350414906F0D1
:10357000ECFE3100200006F090F92900200006F052
:1035800085F905B0F0BD300039003B4A3B4B0AF0ED
:1035900039F8002823D0002D21D0012300260C2546
:1035A00001930C3303227721200000930D3305F0A3
:1035B0009FFB07230422782120000196009505F047
:1035C00097FB07230422812120000196009505F036
:1035D0008FFB072304228A210196009586E7284B5A
:1035E00030003900274A0AF00DF8012300281AD0CC
:1035F000002D18D000260C2501930C3303227721CF
:10360000200000930D3305F073FB0723042278217B
:1036100020000196009505F06BFB07230422812111
:103620000196009562E7039A002A00D061E70193B2
:103630000D23772100930332DB18200005F058FB9F
:10364000039B042201930C2378210093053B4DE753
:1036500074060000CDCCCCCCCCCC0E40B0550100D3
:1036600057000A0084060000184D010044060000BF
:1036700059001200C14701009A99999999990D40F2
:1036800066660C40666666665E4BF7B5C518002335
:103690000400019346332D2205212800009358335E
:1036A00005F05AFB584F594E594B3100E351280051
:1036B00006F04BFE574B0A22E158280006F0ABFEFD
:1036C000554B3100E351280006F03FFE012616233A
:1036D00014220621280001960093B23305F008FB5E
:1036E0004423019626002E22232128000093343300
:1036F00005F0FEFA494B0C36E3510021300009F089
:103700001AF80100280006F024FE0121300009F01B
:1037100012F80100280006F01CFE0221300009F01A
:103720000AF80100280006F014FE0321300009F019
:1037300002F80100280006F00CFE0421300008F019
:10374000FAFF0100280006F004FE0521300008F011
:10375000F2FF0100280006F0FCFD0621300008F011
:10376000EAFF0100280006F0F4FD0721300008F010
:10377000E2FF0100280006F0ECFD294B3E00E35C6F
:10378000002B1CD0274B2849E351280006F0DDFD13
:10379000264B0A22E351BD23DB00E158280006F046
:1037A00036FE234B2349E351280006F0CEFD224B81
:1037B0000A22E351214B2800E15806F028FE204B55
:1037C0002049A351280006F0C0FD1F4B0A22A35137
:1037D000BE23DB00E158280006F019FE1B4BE35C1A
:1037E000002B02D02000FFF77DF82000FFF71EFE1F
:1037F0002000FFF711FD2000FEF7F2FF280006F081
:103800002FF9F7BD7406000084060000C4470100CC
:1038100005000F00DC05000006000F000500240075
:10382000E405000023004100C94701005F0041009A
:1038300023005500D04701005F005500EC05000053
:1038400023006900D94701005F006900E505000019
:1038500013B50400012009F099FA012802D10022D1
:10386000114BE2541149684603F062FA6B46DA786C
:10387000C023DB00E2506B461A790D4B6846E250DC
:103880006B465A79C123DB00E25003F035FBC723B6
:10389000DB00E0502000FFF787F92000FFF7F4FE7F
:1038A0002000FFF70BFA13BDFF050000280A0020D7
:1038B00004060000F0B5F64B0700C35C9DB0002B7A
:1038C00003D000210D2009F035FA3C001834042102
:1038D0002000F04AFFF782FBB723EF4ADB00FA50E3
:1038E0000FA8FEF7BFFEB522D2002100BA18EB4B9D
:1038F00013A803F03BFEEA4B0FA9FC182000FFF7CA
:103900001BF8E84B0126FD181623320000934421D2
:10391000073B2800019605F0EBF9E34BFB5C0393B2
:10392000002B63D101930E3302224621280000931D
:10393000033B05F011FA039B062201930A2345215C
:1039400028000093083B05F007FA082307224621C8
:10395000280000930196043B05F0CAF9039B04225A
:1039600001930323482128000093330005F0F4F964
:103970000323039A4A212800019200930422330072
:1039800005F0EAF90323039A4C21280001920093E1
:103990000422330005F0E0F90323039A4E212800A6
:1039A000019200930422330005F0D6F9102300930E
:1039B0000A3B1A0048212800019605F099F9BB4BF3
:1039C000BB4A0221FA50280005F060FF2800B949DF
:1039D00005F063FFB849280006F0B7FC2800B74996
:1039E00005F05BFF3100280005F050FF04AD280012
:1039F000B34903F09DF90A226978200006F021FD01
:103A0000B04E2000310006F0A0FC0A22A978200068
:103A100006F017FD3100200006F097FCFA23297804
:103A2000DB00C9180A22200006F0F1FCA64920009C
:103A300006F08BFC0A22E978200006F002FDA34E76
:103A40002000310006F081FC2B79092B03D83021AE
:103A5000200006F07EFC0A222979200006F0F1FC05
:103A60003100200006F071FC6B79092B03D830215E
:103A7000200006F06EFC69790A22200006F0E1FCC5
:103A8000934D2000290006F060FC924BFB5C002B5C
:103A900021D0DA23DB000FAAF81806A906F05CFB98
:103AA00014980CF019F9022602000B002000009671
:103AB00006F08AFD2900200006F047FC0B980CF068
:103AC0000BF9009602000B00200006F07DFD290096
:103AD000200006F03AFC8049200006F036FC290060
:103AE000200006F032FC390020000C3106F026FCE4
:103AF0002900200006F029FC784B0A22F958200002
:103B000006F085FC2900200006F01FFC3800FFF7B6
:103B10004BF8B823DB00F8580CF0DEF80B0002215C
:103B200002000091200006F04FFD2900200006F061
:103B30000CFCC223DB00FE183000694908F0DDFDF3
:103B4000002800D0DEE00020664909F073FA0B007F
:103B5000022102000091200006F036FD290020001D
:103B600006F0F3FBBC23DB00F9580A22200006F024
:103B70004EFC2900200006F0E8FB3100200006F092
:103B8000DDFB2900200006F0E0FB574BFB5C002B1F
:103B900000D1C0E02000554906F0D7FB29002000E5
:103BA00006F0D3FBBD23DB00F9580A22200006F003
:103BB0002EFC2900200006F0C8FB4D4B0A22F958C4
:103BC000200006F024FC2900200006F0BEFBBE23E6
:103BD000DB00F9580A22200006F019FC2900200019
:103BE00006F0B3FB434B0A22F958200006F00FFC05
:103BF0002900200006F0A9FB3000394908F07DFDBE
:103C0000002800D091E00020364909F013FA0B009B
:103C1000022102000091200006F0D6FC29002000BD
:103C200006F093FB30002E4908F067FD002800D114
:103C30008CE0BE23DB00FB58012B00DC86E02E4B22
:103C40000A222000F95806F0E2FB2900200006F0C5
:103C50007CFB3000224908F050FD002800D181E0B3
:103C60000020204909F0E6F90B0002210200009132
:103C7000200006F0B0FC1922082138000223FEF7CC
:103C800077FD094BFC18200003F0C0FB200035E055
:103C90004106000000093D002E4353560242000039
:103CA000A404000074060000B404000084060000B0
:103CB0004A001000B0550100C6490100184D01002E
:103CC000280A0020A8470100AF470100C7470100AC
:103CD000E247010044060000E4470100DC05000063
:103CE000124801000000F0BFFC050000EB47010096
:103CF000EC050000F40500003C06000003F0D8FBD2
:103D00001DB0F0BDB923DB00F9580A2220000131B3
:103D100006F07DFB22E72000374906F016FB374B03
:103D2000FB5C002B00D139E734E7354BF858354BB5
:103D3000984206DC0BF07AFF0022334B0AF01EFD9E
:103D400065E72000314906F000FB67E700203049B5
:103D500009F070F90B00022102000091200006F02A
:103D600033FC72E730002B4908F0C7FC002838D13B
:103D70003000294908F0C1FC002832D13000274921
:103D800008F0BBFC00282CD13000254908F0B5FC18
:103D9000002826D13000234908F0AFFC002820D1AC
:103DA0003000154908F0A9FC002818D130001E4940
:103DB00008F0A3FC002812D130001C4908F09DFC3B
:103DC00000280CD130001A4908F097FC002806D1D1
:103DD0003000184908F091FC002800D140E7164B4C
:103DE00001E0C423DB00F8580BF020FF0022064B53
:103DF0000AF0C4FC38E7C046F0470100FC050000AB
:103E00001C0600005FEA000000408F40F6470100FA
:103E10000000F0BFEB470100004801000A48010024
:103E200019480100274801003A48010045480100AF
:103E3000554801006448010024060000F8B51A4BFB
:103E40000400C75C002F2ED1C52608F0BDFCBD22A2
:103E5000C425F600A051D200A358ED000133A350B1
:103E60006751062008F092FF0028FAD008F0ACFC59
:103E7000A359C01A60512000FFF706FC2000FFF78D
:103E80007BFAC223DB00E018084B6259E35808496B
:103E90009A4200DB074908F01FFC2000FFF70AFDEB
:103EA0000022054BE254F8BDFF050000CC050000E0
:103EB00000480100EB470100FD050000F8B5194B73
:103EC0000400C75C002F2BD108F07EFC164E174A69
:103ED000A051A358164D0133A3506751052008F097
:103EE00055FF0028FAD008F06FFCA359C01A6051A2
:103EF0002000FFF7C9FB2000FFF76AFAC223DB00AE
:103F0000E0180C4B6259E3580B499A4200DB0B490D
:103F100008F0E2FB2000FFF7CDFC0022084BE25442
:103F2000F8BDC046FF0500002C060000EC050000AF
:103F300024060000CC0500003A480100F0470100CB
:103F4000FE050000F7B5040001910D20012108F0E5
:103F5000F1FEC5260023BD270093F600FF00019B5C
:103F6000DA179B185340009A934200DC75E0062054
:103F700008F00CFF051E20D108F026FCA051E359E3
:103F80000133E351C423DB00E550062008F0FEFEB8
:103F90000028FAD008F018FCA359C01AC423DB008B
:103FA000E0502000FFF770FBC223DB002D49E01832
:103FB00008F092FB2000FFF77DFC052008F0E6FEEC
:103FC000051E21D108F000FC274B284AE050A358D9
:103FD0000133A350264BE550052008F0D7FE0028FA
:103FE000FAD008F0F1FB204BE358C01A204BE05008
:103FF0002000FFF749FBC223DB001E49E01808F050
:104000006BFB2000FFF756FC1B4B0121E018019BC6
:10401000002B19DD02F04CFB1425C823DB00013B0B
:10402000FDD1012008F0B2FE00280FD1C823DB002B
:10403000013BFDD1013008F0A9FE002806D1200087
:10404000FEF71EFE0120FEBD4942E3E7013D002DC3
:10405000E3D1009B0133009381E72000FEF710FEBF
:104060000020F0E7274801002C060000EC050000C6
:104070002406000064480100A406000010B5642175
:10408000FFF760FF10BD000073B50400FFF724F9CF
:10409000FA212000FEF7F2FA1E25002811D13C2655
:1040A000764278212000FFF74DFF002809D131002A
:1040B0002000FFF747FF002803D1013D002DF0D17C
:1040C0000AE001250F22054B0521E0180195782310
:1040D000009204F00DFE280076BDC0467406000074
:1040E00073B50400FFF7F8F8FA212000FEF7C6FACE
:1040F0000025A8420BD001250F22184B0521E018FE
:1041000001957823009204F0F3FD280076BD142178
:10411000002008F062FA1430A84208DBA900200051
:104120004942FFF70FFF0028E5D10135EFE7FA21FB
:104130002000FEF7A3FA051EDDD1060014210020A1
:1041400008F04BFA1430B042DFDB2000B100FFF77B
:10415000F9FE0028CFD10136F0E7C0467406000012
:10416000F0B504001600002589B00491002D00D0A0
:1041700063E12000B349FFF7E5FE0500002E02D001
:104180002000FEF7A5FA002D00D113E12000C6277C
:10419000FEF776FD08F018FB0023FF00E051AA4867
:1041A00063222518192128000093053304F0ECFF41
:1041B000280005F055FC08F007FBE359A34DC01A91
:1041C00005976051083F012008F0E0FD00285ED10E
:1041D0009F4B62599A425ADC08F0F6FA059BE35865
:1041E000C01A605120000393FFF798F8062008F0EA
:1041F000CDFD0390002821D108F0E6FABD22C426A7
:10420000E051D200A358F6000133A350039BA35101
:10421000062008F0BBFD0028FAD008F0D5FAE359D3
:10422000C01AA0512000FFF72FFAC223DB008949F2
:10423000E01808F051FA2000FFF73CFB052008F0D9
:10424000A5FD03900028BED108F0BEFA824B834A38
:10425000E050A358824E0133A350039BA351052085
:1042600008F094FD0028FAD008F0AEFA7A4BE35833
:10427000C01AA0512000FFF707FAC223DB007949DA
:10428000E01808F029FA2000FFF714FB9BE7C5258A
:10429000BD27ED00FF00012008F078FD002851D176
:1042A0002000FFF7D5FA062008F070FD03900028E3
:1042B0001FD108F089FAC4266051E359F600013392
:1042C000E351039BA351062008F060FD0028FAD0BB
:1042D00008F07AFA6359C01AA0512000FFF7D4F908
:1042E000C223DB005B49E01808F0F6F92000FFF775
:1042F000E1FA052008F04AFD03900028CBD108F030
:1043000063FA554B554AE050A358554E0133A3501C
:10431000039BA351052008F039FD0028FAD008F0CE
:1043200053FA4D4BE358C01AA0512000FFF7ACF9E7
:10433000C223DB004B49E01808F0CEF92000FFF75C
:10434000B9FAA8E72000FEF79BFCBE22D200A358D2
:104350000133A350049B002B04DD0122190020002F
:10436000FEF71EFA0025404B4049E554404B414EB4
:10437000E5541233E01808F0AFF93F4906A802F0FF
:10438000D7FC06A802F0B8FDA359C01A3B4BE05079
:1043900006A802F0B1FDA0512000FFF78BFAB92367
:1043A0000122DB00E550364B2000E254FFF76CF9A8
:1043B00009B0F0BD324BE35C002B0BD1B9272000D4
:1043C0003049FEF75BF9FF00E3595A1CE25100281F
:1043D00006D001252A4BE35C002B00D1C6E6E7E7B7
:1043E000294B5343294A9B18294A934213D9E75929
:1043F0000A21380009F0D6F8002912D0B923DB00D1
:104400001421E05809F0CEF80029E3D12000FFF78D
:1044100067FE0500DEE72000FFF730FE0028E6D04B
:10442000D7E71421380009F0BDF80029EED02000AC
:10443000FFF72AFE0028E1D0CBE7002E00D1A5E649
:1044400035009DE6D4FEFFFF740600001C06000048
:104450005FEA00000A4801002C060000EC0500009D
:104460002406000045480100FD0500001248010037
:10447000FE05000034060000280A00203C0600006B
:10448000FF050000DC050000CDCCCCCC9999991932
:1044900032333333F0B589B004AD06005E492800ED
:1044A00002F046FC280002F027FDC723DB00F05095
:1044B0005A4B5B4AF4185B4F5B4B3900F2502000BB
:1044C00005F043FF584B56492000F150390005F0E4
:1044D0003CFF0123029301931833009378332D227C
:1044E000FF330021200004F07CFE504B4E4AB350B5
:1044F0006B78092B03D83021200005F02AFF0A220F
:104500006978200005F09DFF494F2000390005F033
:104510001CFFAB78092B03D83021200005F019FFD0
:104520000A22A978200005F08CFF3900200005F050
:104530000CFFFA232978DB00C9180A22200005F0B5
:1045400066FF3C49200005F000FF0A22E9782000C0
:1045500005F077FF384F2000390005F0F6FE2B7983
:10456000092B03D83021200005F0F3FE0A22297917
:10457000200005F066FF3900200005F0E6FE6B79AB
:10458000092B03D83021200005F0E3FE0A226979C7
:10459000200005F05AFF002350221E212000009326
:1045A000643304F087FB200005F05AFA062008F077
:1045B000EDFB002814D1C8210122890006F05EFB22
:1045C000C723DB00F15806A83C3902F027FC12484B
:1045D00006A902F061FB08F0F7F8C923DB00F050F0
:1045E000052008F0D3FB002814D1C821012289003E
:1045F00006F044FBC723DB00F15806A83C3102F06B
:104600000DFC054806A902F047FB08F0DDF8C923B8
:10461000DB00F05009B0F0BD280A0020740600004D
:1046200001002800784801008406000001003C00D9
:10463000A8470100AF470100C7470100F0B50400DB
:1046400087B0CB23DB00E35C002B00D146E1A44B19
:104650000022E61801255023110030000195009337
:10466000783304F045FB9F4F9F4BA049E351300046
:1046700005F07CFE1C237A22242130000195009352
:10468000983304F035FB642008F0D4F8300005F0CE
:10469000E7F9974D974B944AE351635903970A3BC7
:1046A0000592592B03D83000934905F04EFE63590B
:1046B000092B03DC3000914905F047FE0A226159BD
:1046C000300005F0A4FE642008F0B4F8300005F0D6
:1046D000C7F9052008F05AFB002810D163592000C3
:1046E00001336351FDF7EBFF08F06EF8C923DB00DF
:1046F000E050AF2362599B009A4200DD63510620CF
:1047000008F044FB071E0ED163592000013B6351A2
:10471000FDF7D5FF08F058F8C923DB00E0506359D6
:10472000002B00DC6751C92508F04EF8ED006359F5
:10473000C01A734B984284D9CB230022DB00E25489
:10474000704B039A7049A350300005F00FFE300003
:1047500005F086F9FA20800008F06CF808F034F8CB
:104760006051300005F047F9300005F079F908F0A4
:104770002BF86359C01A654B984206D82000FFF702
:1047800089FE0A2008F056F8F1E7614B039A614967
:10479000A350300005F0EAFD300005F061F9FA2081
:1047A000800008F047F85C4BE35C002B00D18DE003
:1047B000012512233822052130000195009366332C
:1047C00004F096FAC82008F035F8300005F048F9F2
:1047D000002250231100300001950093783304F03B
:1047E00087FA039B059A4D49E250300005F0BEFD63
:1047F0004B4F4C4B039AE159A35030000A2205F06D
:1048000006FE4949300005F0A0FDBB23DB00E1585E
:104810000A22300005F0FBFD4449300005F095FD0B
:10482000322008F007F8300005F01AF9062008F0E9
:10483000ADFA051E13D1E3590133E35107F0C4FF6C
:10484000C923DB00E050E359182B00DDE551BB2202
:10485000D200E359A1588B4201DD0133A35005205A
:1048600008F094FA0490002814D1BB25ED00635998
:104870000133635107F0A8FFC923DB00E0506359FF
:10488000182B01DD049B63516359E2599A4201DD03
:10489000013BE35107F098FFC923DB00E358C01A3E
:1048A000174B984200D87EE700231B4A2049A354A7
:1048B000204B039A3000A35005F058FDFA208000E9
:1048C00007F0B8FF300005F0CBF86CE72000FEF7EA
:1048D00005FB2000FEF76AF8FDF74EFE07B0F0BDBD
:1048E000740600008406000005002E0084480100C4
:1048F000DC05000026008A008C4501008B45010084
:10490000B80B00000500460096480100B70B0000F8
:10491000050069009E48010059060000AF480100EB
:10492000D40500000F004600C14801008A4501007F
:10493000C848010005005F00F7B50400062008F034
:1049400025FAA14D002825D1053008F01FFA061ED2
:1049500020D1FA229D49520006F090F92822200029
:104960009B49FDF7DDFE142231002000FDF7D8FE43
:1049700007F02AFFC9230222DB00E050FF32103388
:104980002000E252FFF75AFE635D0B2B3ED90B234A
:1049900063553BE0062008F0F9F9C9270600FF003F
:1049A000002815D107F010FFE051635D3000013B96
:1049B0006355C822874906F061F9200028228649FC
:1049C000FDF7AEFE142231002000FDF7A9FEDBE763
:1049D000052008F0DBF9061ED6D107F0F5FEE05100
:1049E000635DC8220133635530007A4906F046F909
:1049F000282220007949FDF793FE1422310020007F
:104A0000FDF78EFE635D0C2BBED16655744B3022D4
:104A1000E61801230193313300930A2196333000C5
:104A200004F066F96F4F704BE351704BE35C002B61
:104A300074D0635D002B03D130006D4905F085FC17
:104A4000635D012B03D130006A4905F07EFC635D94
:104A5000022B03D13000684905F077FC635D032B1E
:104A600003D13000654905F070FC635D042B03D170
:104A70003000634905F069FC635D052B03D130000C
:104A8000604905F062FC635D062B03D130005E498E
:104A900005F05BFC635D072B03D130005B4905F03B
:104AA00054FC635D082B03D13000594905F04DFCDF
:104AB000635D092B03D13000564905F046FC635D68
:104AC0000A2B03D13000544905F03FFC635D0B2BEA
:104AD00003D15249300005F038FC300004F0C0FF2B
:104AE00007F072FEC923DB00E358C01A4C4B984212
:104AF00066D94C4B4C49E351300005F037FC30008F
:104B000004F0AEFFFA20400007F094FE2000FEF70C
:104B1000E5F9C82007F08EFEFDF72EFD635D002B42
:104B200003D13000414905F010FC635D012B03D136
:104B300030003F4905F009FC635D022B03D13000D2
:104B40003C4905F002FC635D032B03D130003A4978
:104B500005F0FBFB635D042B03D13000374905F002
:104B6000F4FB635D052B03D13000354905F0EDFB07
:104B7000635D062B03D13000324905F0E6FB635D2F
:104B8000072B03D13000304905F0DFFB635D082BB4
:104B900003D130002D4905F0D8FB635D092B03D10B
:104BA00030002B4905F0D1FB635D0A2B03D13000A7
:104BB000284905F0CAFB635D27490B2B8DD189E796
:104BC0002000FFF7B9FEC046E6050000B80B000064
:104BD00002020200C40900000200020000020200FA
:104BE00074060000840600000A003C004206000033
:104BF000D7480100E4480100E8480100EC48010002
:104C0000F0480100024901000D4901001C49010062
:104C10002B4901003C490100464901005649010069
:104C2000DB0500000A006400BB4901006449010083
:104C30006B49010072490100794901008049010076
:104C4000874901008E490100954901009C490100F6
:104C5000A3490100AB490100B34901003223F0B57B
:104C6000050089B05B4206939B4B0026EC186B460F
:104C70001B8B0A27190004930623193152222000A6
:104C800009B2019302960933009704F0AAFA0323AC
:104C9000049A0193163212B2079202335022200076
:104CA000079900930296033304F09BFA01230499B9
:104CB00054221E31029301930093200009B204F0A4
:104CC00090FA3900069808F087FB01220123024080
:104CD000059218427AD16B461822995E1123059AE3
:104CE000200002920197542200930F330F0004F02A
:104CF00078FA049A1223083A16B2059A3100200075
:104D00000092552203F0D6FF059A310012232000AD
:104D10000092562203F0CEFF049A08230E3A16B2F0
:104D2000059A310020000092542203F0C3FF059A37
:104D30003100082320000092552203F0BBFF032618
:104D40000423059A0799029200936322DB1820003E
:104D5000019604F046FA059A062302923900612270
:104D6000009301960233200004F03BFA200004F087
:104D700077FE502007F05EFD012304990193193955
:104D800020334922009320003E3309B203F0B0FFE4
:104D9000524BEA5C524BEA54524BEA58524BEA509F
:104DA000524BEB5C002B03D1514BEB5C002B52D0F0
:104DB000062007F0EBFF0400052007F0E7FF002CBA
:104DC00001D0002847D12800FFF7B6FD049B5222EE
:104DD000991C1123200009B20197009302960D330C
:104DE00004F0FFF9049B5B229F1F3FB2390012239E
:104DF0002000009603F05EFF390012235A222000A3
:104E0000009603F057FF049F08230C3F3FB2390080
:104E10005C222000009603F04DFF390008235B223E
:104E20002000009603F046FF032704230499632221
:104E30000F3109B200932000DB180296019704F0AD
:104E4000D0F90623049900930831612209B2029631
:104E50000197023387E7062007F098FF002832D138
:104E6000053007F093FF041E2DD1FA21C8228900D6
:104E700005F004FFC820400007F0DCFCFA22FA210C
:104E800052008900200005F0F9FEC82007F0D2FC8E
:104E9000962220001749920005F0F0FE28222800F3
:104EA0001549FDF73DFC142221002800FDF738FCD0
:104EB00007F08AFCC9230122DB00E85010332800E8
:104EC000EA54FFF7BBFB069B0F330693CD2B00D0B4
:104ED000CAE609B0F0BDC04674060000E605000051
:104EE000E7050000DC050000540600004306000052
:104EF00042060000B80B000002020200F8B53D4B6C
:104F00000500C75C002F74D13B4B0321C41820005F
:104F100004F0BCFCD123DB002000EF5004F06BFD5B
:104F2000364E374B3749AB51200005F00EFA0121C0
:104F3000200004F0ABFC344B2000AB51B523DB0068
:104F4000E91805F002FA314B3149AB512E0020002F
:104F500005F0FBF92F4920000C3605F0F6F92E4933
:104F6000200005F0F2F93900300007F0E4FB010001
:104F7000200005F0EEF90121300007F0DCFB010014
:104F8000200005F0E6F90221300007F0D4FB010013
:104F9000200005F0DEF90321300007F0CCFB010012
:104FA000200005F0D6F90421300007F0C4FB010011
:104FB000200005F0CEF90521300007F0BCFB010010
:104FC000200005F0C6F90621300007F0B4FB01000F
:104FD000200005F0BEF90721300007F0ACFB01000E
:104FE000200005F0B6F9200004F03AFD2800FFF794
:104FF00035FEF8BD4206000074060000840600007D
:105000000F003700C849010002008A000200780042
:10501000CD490100E4470100D1490100F7B5040082
:10502000454B464EC518280004F0E5FC444B2800CB
:10503000A351B523DB00E11805F087F9414B424F3E
:10504000A3513900280005F091F9404B3900A351D4
:10505000280005F08BF9012301934F331E22002114
:1050600028000093503303F043FE394B2800A3512E
:10507000384905F06AF9384BA351384EA35D002B2F
:1050800003D12800364905F060F9A35D012B03D157
:105090002800344905F059F9A35D022B03D12800FB
:1050A000314905F052F9A35D032B03D128002F49A4
:1050B00005F04BF9A35D042B03D128002C4905F022
:1050C00044F9A35D052B03D128002A4905F03DF9D9
:1050D000A35D062B03D12800274905F036F9A35D0F
:1050E000072B03D12800254905F02FF9A35D082BD4
:1050F00003D12800224905F028F9A35D092B03D12B
:105100002800204905F021F9A35D0A2B03D12800CE
:105110001D4905F01AF9A35D0B2B03D128001B498B
:1051200005F013F92000FFF799FD280004F063FC57
:10513000280004F095FCF7BD74060000840600000A
:10514000010087000A001400D34901000B0014007D
:105150000A002800DD4901000A003C00E6050000C5
:10516000644901006B49010072490100794901005D
:1051700080490100874901008E49010095490100DD
:105180009C490100A3490100AB490100B34901005A
:10519000F7B5614E0400835D002B00D088E0BC228F
:1051A000D200A350A35D0122062B00D0A7E0BC23B0
:1051B000DB00E250594B5A4FE518280004F01BFC65
:1051C000584B2800E351B523DB00E11805F0BDF88A
:1051D000012301934F331E220021280000935033F6
:1051E00003F086FD504B2800E351504905F0ADF81F
:1051F0004F4BE351A35D002B03D128004D4905F02F
:10520000A4F8A35D012B03D128004B4905F09DF8BC
:10521000A35D022B03D12800484905F096F8A35D51
:10522000032B03D12800464905F08FF8A35D042B1A
:1052300003D12800434905F088F8A35D052B03D16D
:105240002800414905F081F8A35D062B03D1280011
:105250003E4905F07AF8A35D072B03D128003C49AD
:1052600005F073F8A35D082B03D12800394905F038
:105270006CF8A35D092B03D12800374905F065F8C8
:10528000A35D0A2B03D12800344905F05EF8A35D25
:105290000B2B03D12800324905F057F82000FFF707
:1052A000DDFC280004F0A7FB280004F0D9FBF7BDC3
:1052B000012B00D173E7022B14D0032B17D0042B42
:1052C00019D0052B00D06DE7BC230122DB00C250B2
:1052D000FDF7D6FC00210D2007F02CFD022007F081
:1052E000A9FA5FE7BC230322DB00E2505AE7BC23A4
:1052F0000522DB00F9E7BC236322DB00F5E7072B7F
:1053000000D154E7082B00D151E7092B00D14EE71B
:105310000A2B00D14BE74DE7E605000074060000BC
:1053200084060000010087000A002800EA49010005
:105330000A003C00D7480100E4480100E8480100A9
:10534000EC480100F0480100024901000D4901004C
:105350001C4901002B4901003C490100464901005C
:10536000564901009621F8B504008901534805F01B
:105370002DFE0021012007F0ADFC0021062007F0E2
:10538000A9FC0021052007F0A5FC00212D2007F035
:10539000A1FC01210D2007F09DFC0121082007F050
:1053A00099FC0121002007F095FC0121102007F055
:1053B00091FC0121112007F08DFC0121122007F042
:1053C00089FC0121132007F085FC01210E2007F044
:1053D00081FC3B4E3B48310001F048FC3A4B002732
:1053E000E518280004F0B9FB280004F009FC374B4D
:1053F000FA21E01801F086F8354BE518280004F092
:10540000D1FA2800334904F048FA0321280003F0B8
:1054100025FDD123DB0001212800E75004F036FAF6
:10542000DA23DB00E0183A003823310004F0F2FD03
:10543000B84202D00122284BE254284803F0C4FAB3
:105440002000FDF709FE264E264B01213000264A9A
:105450001C60022301F0F2F9022306213000234AE6
:1054600001F0ECF902230521214A300001F0E6F9B0
:105470002000FDF76BFB2000FDF770FAC923002226
:10548000DB00E2502000FDF78FFB1A4BE35C002BA2
:1054900002D02000FFF77CFE174B2000E35C002BBE
:1054A00008D0FFF7BBFD280004F0A5FA280004F09F
:1054B000D7FAF8BDFFF722FDF5E7C046F414002047
:1054C0002C0A0020280A00205C060000A406000028
:1054D00074060000184D010044060000B5250000C8
:1054E000AC0E0020240A0020092C00003D2C0000F6
:1054F000712C0000420600004306000000230372E6
:10550000FA3301704260C360704710B5037A04003B
:10551000002B0AD02178606800F072FA606800F011
:1055200020FB43425841C0B210BD012100F003F8F6
:105530000028EFD1F8E770B5040040680D0000F0D6
:105540003FFA01202072002D02D02000FFF7DDFF7E
:1055500070BDF8B51E00079B1500D318C268040083
:105560000F00934201D90020F8BD0178406800F097
:1055700047FA079B002B0FD160682A0003683900A7
:105580005B6898478542EED13100606800F0B1FA5F
:1055900043425841C0B2E7E7069B002BECD060685D
:1055A000079A036806995B689847079B9842DAD187
:1055B000E2E7F8B505000F0016000178D2B24068A6
:1055C00000F036FA002486420AD1A64207D968685C
:1055D00003685B69984738550134A4B2F5E70124A4
:1055E0002000F8BDF7B507001600002400910193D4
:1055F000B44213D2FB68351B9D4200D91D00019BAC
:10560000721BA24200D90023009A380011192A0007
:10561000FFF7CFFF002802D06419E9E70120FEBDA3
:1056200073B5040000201D0006AB40CB1B78019031
:1056300000902000FFF78DFF002805D001233200E5
:1056400029002000FFF7CEFF76BD0000F7B5002748
:1056500008ACE7570AAC24781825A4460BAC24788C
:10566000817301940024694304604460204C214DFF
:105670000E57C273F601761906620126350043748F
:105680000774611849688D400563791C0AD0182594
:105690007D432957174FC901C919651941616968C7
:1056A0008E404662591C0BD018214B43E156124DD7
:1056B000C9014919E318C161596801238B4083620C
:1056C00018235A43A3560B49DB015B18836101235E
:1056D000A41862689340C362099B002283606346FA
:1056E0000373019B4373030034331A70FEBDC0463D
:1056F000405F0100104400412044004110B5040007
:105700000E202056431C07D0012107F0E3FA0E209B
:105710000121205607F00EFB2068002805D000F07C
:105720002DFC01203434207010BD0F2001212056A3
:1057300007F0D0FA02230F20617B2056994315D140
:1057400007F0F8FA10202056431C07D0012107F07B
:10575000C1FA10200121205607F0ECFA1120205642
:10576000431CDED0002107F0B5FADAE70121E7E7B4
:10577000F0B5040000680E00150089B0002803D0C1
:1057800000F03BFB09B0F0BD0122237B0292002B0D
:1057900001D080230293029A3378A16813405A42C1
:1057A00053414D48DBB2059307F08CFDC3B2302066
:1057B000032158430393019307F084FD310084468D
:1057C00073190793079B8B42DCD000220B7806935A
:1057D000029B0398002805D00198002802D060465B
:1057E0000138FDD1657BA069023D012D45D810250A
:1057F0006557013512D0069E1E4035006F1EBD4113
:105800000496059EB54209D0049E676A6569002E1C
:105810002ED02E683E432E60012505950568E66A68
:1058200035430560039D002D05D0019D002D02D05C
:105830006546013DFDD111256557013506D0E56965
:10584000A66A2D682E4201D01A43D2B20568E66AD4
:10585000B543056011202056013000D00A70207B2E
:10586000002837D15B00DBB2002BB2D10131A9E7B0
:105870002E68BE432E60049DCFE70568E66A354377
:105880000560039D002D05D0019D002D02D06546C9
:10589000013DFDD110256557013507D0069E65698C
:1058A000676A334212D02E6837432F600568E66A74
:1058B000B5430560112020560130CBD0E069A56AC0
:1058C00000680542C6D01A43D2B2C3E72E68BE4371
:1058D0002E60EBE75B10C6E720A1070007B56B461B
:1058E0000122D971D91DFFF743FF6B46D8790EBD50
:1058F0000300006810B5002803D05B6806CB00F0F9
:1059000047FA10BD006810B5002801D000F05CFA1D
:1059100010BDF8B505000E0017000024BC4208D0E9
:105920002B682800315D1B689847002801D001349E
:10593000F4E72000F8BD70470300FC33196ADA6908
:10594000914203D01B6AC018007E7047012040427C
:10595000FBE70300FC33D8691B6AC01A01D501308C
:10596000FF307047F7B50193FA2380270025040024
:105970009B008360114B7F0008330E0045602900B7
:10598000009203603A0018300AF028FC230020003F
:10599000FC332130DD613A001D622900FF300AF03E
:1059A0001DFC87239B00E3185D609D60009B200029
:1059B0002375019B2661A5756375FEBDC055010069
:1059C00070B5040018260C49006905F099F82069A3
:1059D00004F0F2FE33000821207D084D4343EB180C
:1059E000595607F0EBF90821607D4643AD19695619
:1059F00007F0E4F970BDC046A0860100405F0100D9
:105A00008A2300229B00C1540C3BC3185A609A6041
:105A10000123837570470200FC32536810B50133CF
:105A20009468DBB29C4202D054680155536010BDAB
:105A3000F7B5019300230400150018009A422FD0F7
:105A40002200FC32D36120691362012204F0F2FECD
:105A5000002826D02700206904F06EFF18370100C7
:105A60003800FFF7D8FF01262069B5420ED004F0B8
:105A7000C1FE0221206904F0C7FE206904F05CFF2A
:105A800001003800FFF7C7FF0136EDE704F0A9FE7B
:105A9000019B002B03D00321206904F0B5FEE8B27E
:105AA000FEBD0500FBE710B50300827D00208242A9
:105AB0000ED0872292009C186268A4680132D2B28C
:105AC000A24205D02133FF331800FFF7A4FF0120C5
:105AD00010BD0300FC3399685A68914206D09A6859
:105AE000805C9A680132D2B29A60704701204042CD
:105AF000FBE700228A2370B59B00827505000E002B
:105B0000C15C006904F096FE002806D103212869D3
:105B100004F07AFE0224200070BD872328009B0039
:105B2000EA18536894682130FF301C1B01D50134FA
:105B3000FF34002C0ED02C69FFF7CBFFC1B2200040
:105B400004F0B6FE0028E8D10321286904F05CFEC9
:105B50000324E0E7002EDED00321286904F054FE80
:105B6000D9E710B50121FFF7C4FF10BD10B51830FB
:105B7000FFF7AFFF10BD70B50400006904F0BAFE76
:105B8000002814D0206904F0C3FE002810D020693A
:105B900004F030FE0321206904F036FE8C239B00C4
:105BA000E558002D39D10023FC34E361236270BD38
:105BB000206904F0B7FE002809D0206904F0ADFE8A
:105BC000002804D0206904F0B2FE0028DFD020694C
:105BD00004F0A8FE002826D1206904F094FE0028D5
:105BE000E5D0206904F0A3FE002837D087239B006E
:105BF000E218536892689B1A01D50133FF33FF21E5
:105C0000002B05D020002130FF30FFF762FFC1B22A
:105C1000206904F060FEA075C9E7236820001B69B5
:105C20009847A847BFE7206904F0E4FD20690321F5
:105C300004F0EAFD206904F07AFE0028B7D087233B
:105C400000229B00E3185A609A600123A3758B23FE
:105C50009B00E3589342AAD09847A8E72200FC3261
:105C6000D369126A0133DBB22069934206D104F092
:105C7000B8FD0321206904F0C7FD98E704F05CFE3D
:105C8000010020001830FFF7C6FE206904F0B2FDC5
:105C9000EFE7000010B50248FFF76DFF10BDC046EA
:105CA0002C0A002010B51523142202490248FFF7E0
:105CB00059FE10BDC81400202C0A002010B500F0B9
:105CC00057FB0022024B8000C35849331A7010BDA5
:105CD000B40C0020F0B5040085B01E000AAB1B78A0
:105CE000103001930BAB1B78170002930CAB1B78A1
:105CF0000D00039300F0BEF92000243000F0BAF943
:105D0000220000234832A363E363236463641370B7
:105D1000537063729D4205D12721084B084A0948F8
:105D20000AF0D4F82000019B25606371029B277163
:105D3000E371039BA671237205B0F0BDE455010029
:105D4000F55501004956010030B5040085B002AD9B
:105D500000680291039204F0EBFC6B79227AE179FE
:105D600020680093002304F0A1FE2979029A20689C
:105D700004F002FD206804F0D1FC05B030BD10B580
:105D80000400006804F0BDFC0023637210BD000035
:105D900007B5837A00910192002B07D09A070AD5A4
:105DA000EFF310835A425341C37272B60099019ABD
:105DB000FFF7CAFF07BDDB07F8D5C368014A9BB2EE
:105DC0009360F3E700180040837A002B05D09A0710
:105DD00004D5C37A002B00D062B67047DB07FCD530
:105DE000C368024A9BB2D360F7E7C0460018004080
:105DF00010B5006804F0A5FC10BD70B505000C00DE
:105E00008E18B44206D021782800FFF7F1FF2070E9
:105E10000134F6E770BD000010B5006804F09AFD8B
:105E200003000020834203DB0C304343014A9858AF
:105E300010BDC0469C56010010B5006804F08AFDF4
:105E4000002805DB0C2343430348C018406810BDFD
:105E500001204042FBE7C0469C56010010B5006897
:105E600004F078FD002805DB0C2343430348C018E9
:105E7000806810BD01204042FBE7C0469C560100EF
:105E8000F0B506001036050089B0300000F048F982
:105E900000286CD12F002437380000F041F9041E8F
:105EA00062D12800FFF7DAFFC1B2300000F018FA23
:105EB0000221300000F038FA01222E49300000F0B3
:105EC0000BFA300000F054FA2B4B8000C55028002C
:105ED000FFF7B2FFC1B2380000F002FA0221380029
:105EE00000F022FA380000F043FA234B8000C5503E
:105EF0002800FFF791FF01230100220002933000E8
:105F00002300049403940194009400F033FAA863EE
:105F10002800FFF781FF01230200210001933800D0
:105F20002300049403940294009400F023FAE8639D
:105F300040200AF01DF92A00483228640792002800
:105F40000BD00123137068646B6C10221819E96B75
:105F500010340AF03AF9402CF6D1079B1B78002B3D
:105F600005D1380000F076F9300000F073F909B07F
:105F7000F0BDC046BD5C0000B40C002070B5437A93
:105F80000400002B03D1012243814272C36023002D
:105F900048331B78002B02D12000FFF771FF182631
:105FA0003300082120790D4D4343EB18595606F074
:105FB00005FF33000821A0794343EB18595606F03A
:105FC000FDFE082160794643AD19695606F0F6FEDC
:105FD000034B200006CBFFF7B7FE70BD405F01000A
:105FE000AC0C00201FB5094A094B0A491360002375
:105FF00093800293013301931633009316220133E9
:106000000548FFF767FE05B000BDC046AC0C002098
:1060100000093D00CC140020600C0020084B1968DA
:10602000002909D1EFF31080064A002803D172B687
:10603000BFF35F8F013111701A6801321A60704727
:10604000780E0020740E0020084B1A68002A0CD02D
:106050001A68013A1A601B68002B06D1044B1B78A2
:10606000002B02D0BFF35F8F62B67047780E00201E
:10607000740E0020FF2310B50370C023002104001C
:106080009B004170418083800C2208300AF0A6F802
:10609000200010BD01230A0010B51A40194208D093
:1060A0000C4A1370033343708368002B00D0984769
:1060B00010BD0223194204D006490B70C368427018
:1060C000F3E704231942F3D0024A137003334370F9
:1060D0000369EAE74E48004110B5FFF79FFF0C4BFC
:1060E0001B8C1B071B0F0B2B0FD80A4A99008858D3
:1060F00000280AD00F2408490A78A24313430B70E2
:10610000064B1978C9B2FFF7C5FFFFF79DFF10BD19
:10611000004800417C0E00203F4800414E480041AD
:10612000F8B500230278050018000B2A77D93C4EF9
:106130002B702B780B2B07D801229A403168114223
:1061400004D001332B70F4E7012068E0FFF766FF0D
:106150003768344C002F2BD12022334B33485969F8
:106160000A435A611022D9690A43DA61022223885C
:106170003900934323802388013A134323802C4B17
:106180006063BF32A3630AF029F8C02239002848AF
:106190000AF024F84022C120264B80002380264BA1
:1061A00026491A601A581140C02212040A431A5094
:1061B00001231A00297830688A40024332600F2692
:1061C0001F4A880085501F4831400278B2430A4375
:1061D000027002201C4A1178814311701178194312
:1061E0001170297822698B409A43226160223F21F5
:1061F000636C934363642A79636C0A401349120207
:106200000B400321134363646A79636C0A401049AD
:1062100092050B4013436364FFF716FF0020F8BD9F
:10622000700E00200048004100040040B00D002026
:10623000F00C0020020F000000E100E0FFFF00FF73
:106240007C0E00203F48004140480041FFC0FFFF56
:10625000FFFF3FFF70B50500FFF7E0FE6B785CB213
:10626000062B2BD02B7802240B2B27D801229A4007
:10627000144B1968114221D01968914319601B68A9
:10628000002B14D14022104BDA67BFF34F8FBFF3BE
:106290006F8F21000D4A0E311388A34313800C4BDE
:1062A000DA698A43DA615A6910318A435A610024F3
:1062B0002B78084A9B009C50FF232B70FFF7C4FEED
:1062C000200070BD700E002004E100E00048004195
:1062D000000400407C0E00200232920011507047F2
:1062E000037870B505000C0001710B2B14D8FFF773
:1062F00095FE29780F25094829400378084AAB43C1
:106300000B4303703F23516C1C40064B2402194081
:106310000C435464FFF798FE70BDC0463F480041EF
:1063200000480041FFC0FFFF037870B505000C0076
:1063300041710B2B14D8FFF771FE29780F250948FE
:1063400029400378084AAB430B4303700323516C85
:106350001C40064BA40519400C435464FFF774FE1F
:1063600070BDC0463F48004100480041FFFF3FFF6D
:1063700000787047F0B587B001930CAB1E780DAB79
:106380001B78050002930EAB1B780078039310ABCB
:106390001F78049105920B2802D9002007B0F0BDA8
:1063A0006B78062BF9D0AB78002B00D179E0102167
:1063B000080009F0D3FE0028EFD02B783B4A1B01E0
:1063C0009B181A00D168002904D0D1688B4201D0F3
:1063D000D268F7E7D06001220223AA70964203D068
:1063E000DB18022E00D0130006240188114301801F
:1063F0000188A143018001881234A1430180153C2A
:10640000018826402A4C360221400E430680029E17
:106410000188284C16402140B6020E430680039E98
:106420000188254C16402140F6020E430680018863
:10643000224E3A40314012030A43072102800F9A4C
:10644000114002884903D204D20C0A4302806A46F2
:1064500092884280049A4260029A002A08D0019AE7
:1064600041685A43002F01D00F9CA2408A18426015
:10647000059A8260039A002A09D0019A84685A43D7
:106480001300002F01D10F9A9340E318836000237B
:10649000EA789A4203D02B78044A1B019B18C36008
:1064A0007CE7024B0001C01895E7C046B00D002004
:1064B000FFFCFFFFFFFBFFFFFFF7FFFFFFEFFFFF0B
:1064C00070B504000025A361049B1000E361059BE7
:1064D0006261236225612560A562A160012106F049
:1064E000F9FBA069012106F0F5FBE069012106F046
:1064F000F1FB206A012106F0EDFB04232000656218
:10650000E36070BD70B50D0004008168034806F0BB
:1065100063FF290006F060FF606070BD0087930391
:10652000C36870B504000D00022B0ED103290CD8EE
:10653000080006F0BDFE0214161C0021606906F07A
:10654000F9FB0121A06906F0F5FBE368042B20D1DB
:10655000032D1ED8280006F0ABFE0C292F3D01218B
:10656000ECE70121606906F0E5FB0021EAE7002184
:10657000F8E70121606906F0DDFB0021A06906F063
:10658000D9FB0121E06906F0D5FB0021206A06F065
:10659000D1FBE368052B61D1092D5FD8280006F0F7
:1065A00087FE1F2937495E6066707E84002160691E
:1065B00006F0C0FB0121E1E70021606906F0BAFBAB
:1065C0000121A06906F0B6FB0021E06906F0B2FBEC
:1065D0000121DBE70121606906F0ACFB0021F0E757
:1065E0000021606906F0A6FB0121A06906F0A2FB6C
:1065F000012108E00021606906F09CFB0121A069EF
:1066000006F098FB0021E06906F094FB00210CE005
:106610000021606906F08EFB0121A06906F08AFB6B
:106620000021E06906F086FB0121206A06F082FB6A
:10663000012110E00021606906F07CFB0121A069C6
:1066400006F078FB0021E06906F074FB0121206A66
:1066500006F070FB0021606A06F06CFB70BD012142
:10666000E9E70121606906F065FB0021E7E7012108
:10667000606906F05FFB0021A06906F05BFB012169
:10668000E1E70121606906F055FB0021A06906F0F1
:1066900051FB0121E06906F04DFB0021D7E7012104
:1066A000606906F047FB00219FE70021F8E7000042
:1066B000CB1770B5CD1804005D40002924DD0123FF
:1066C000236004267642002D30D006F083F8A36ABA
:1066D0006268C31A9342F6D322682369A062012A32
:1066E00016D1A26801332361934201D100232361B3
:1066F000E3682069013D052B11D10A2106F052FF04
:106700002000FFF70DFFDEE700230029D8D1D8E7EE
:10671000002B01D1A36823612369013BE7E704490A
:106720000140EDD5013931430131E9E770BDC04683
:1067300003000080114B12495A880A405A805A7847
:10674000D209FCD10F4A5A805A78D209FCD10E4A9C
:106750005A605A7852B2002AFBDB802259689203B1
:106760000A435A605A7852B2002AFBDBC023074A18
:106770009B0051680B4353607047C046000C0040BB
:10678000FFBFFFFF05460000060301000040004177
:1067900070B5124804F01CFC114C002819D02000E0
:1067A00004F048FE002002220E4B0F4D1968914361
:1067B000196004212E6931432961BFF34F8F30BF27
:1067C00019680A431A60002802D0200004F0D6FE9F
:1067D00070BD200004F00EFF0120E4E7F414002057
:1067E0001015002010E000E000ED00E070B5057825
:1067F00004000E00002D06D1290000F0CFF9290079
:10680000200000F08FF8200000F02CF9FA2105009C
:106810008900300006F056FD4119200000F04AF9C9
:106820000621200000F06CF870BD10B50400FFF7E1
:10683000DDFF2000FFF7ACFF10BD000070B50500C4
:10684000140008001A001A290AD9FF2907D10021CB
:10685000280000F0A3F92100280000F063F870BDC3
:10686000182116254143094B5B185D576B1CF6D068
:10687000102DF4D0210005F0B5FDFFF75BFF0123DB
:10688000AB40034A51690B435361E8E7405F0100A5
:10689000001800400423044A10B5117E0B43137600
:1068A000024B5B68984710BD00400042AC0E0020D0
:1068B00010B5024800F012F810BDC046AC0E002022
:1068C000002805D0034B044A5A809A7AD209FCD199
:1068D0007047C046001400400080FFFF0023037093
:1068E00070470000044B10B51B68002B00D0984780
:1068F0000122024B1A7210BDB40E00200014004099
:1069000003780A00002B09D00720054B0240197FAD
:106910008143114319779A7AD209FCD17047C04656
:1069200000140040014B19607047C046B40E0020AF
:1069300003780A00002B09D03F20054B02409969DB
:106940008143114399619A7AD209FCD17047C046BC
:10695000001400400378002B0BD03F20054B014072
:106960009A69054889010240114399619A7AD209CE
:10697000FCD17047001400403FF0FFFF0378002B6C
:106980000BD01F20054B01409A69054809030240BE
:10699000114399619A7AD209FCD1704700140040E2
:1069A000FF0FFEFF70B50D001900037804001600FC
:1069B000002B09D0FFF7BCFF31002000FFF7CAFF12
:1069C00029002000FFF7DAFF70BD00000378002BDC
:1069D0000BD01F20054B01409A690548490402402D
:1069E000114399619A7AD209FCD170470014004092
:1069F000FFFFC1FF0378002B0BD00F20054B014098
:106A00009A69054889050240114399619A7AD20929
:106A1000FCD1704700140040FFFF3FFC03780A00E0
:106A2000002B09D0054B9206996989018909114308
:106A300099619A7AD209FCD17047C046001400408F
:106A400070B51D00037804001600002B09D0FFF775
:106A5000BDFF31002000FFF7CDFF29002000FFF728
:106A6000DDFF70BD00B500788BB0FFF729FF012274
:106A70000F4B52421B6909920022089207929A0E0C
:106A8000643206929A01120F013A05929A02D20ECE
:106A90000492DA03D20E03921A059B06920E9B0E05
:106AA00001A80292019309F067FC0BB000BDC0463B
:106AB00000140040037837B50500002B1ED0104BA2
:106AC000994200D21900002368460091019309F011
:106AD0003FFA040043690269C168643B013228003F
:106AE000DBB2D2B2C9B2FFF7ABFF23686268A1681C
:106AF0002800DBB2D2B2C9B2FFF754FF37BDC0469F
:106B000080436D38094B0A4A9A605A7852B2002A7B
:106B1000FBDB084A5A605A7852B2002AFBDB064A6D
:106B20005A805A78D209FCD17047C046000C004008
:106B30000204000002051100044200000221044B7F
:106B40001A888A431A809A7AD209FCD17047C046C3
:106B5000001400400222044B19880A431A809A7AD2
:106B6000D209FCD17047C046001400400122044BFA
:106B700019880A431A809A7AD209FCD17047C04614
:106B8000001400400121044B1A888A431A809A7A23
:106B9000D209FCD17047C046001400402023F7B54D
:106BA00000272A4A0E00916905000B439361284B88
:106BB000284A294C9A82BE420BD1284B37001A78BA
:106BC00070231A4205D023881B0702D501272369A9
:106BD00001932800FFF796FF2800FFF7AFFF28007A
:106BE000FFF7C4FF63881E4A134063801D4B238058
:106BF000A37ADB09FCD1C0211B4A0833136089004A
:106C000053581B021B0A53500123E27913430722F6
:106C1000E371237F93432377A37ADB09FCD1280018
:106C2000FFF798FF2800FFF7ADFF002E0BD1002FD4
:106C300009D0019B002B06D02361A37ADB09FCD18C
:106C400001332B70F7BD8423DB03F5E7000400401C
:106C500000080040CE060000001400403804004048
:106C6000FFBFFFFF080A000000E100E070B505006B
:106C700000680E00002801D005F026FE102005F067
:106C80001FFE040032006821FEF738FC2C60012151
:106C90002000FEF750FC70BD0323F0B54F7987B09C
:106CA00004AC0E0003900A2138000625237006F07C
:106CB00009FB68433F18677037790A21380006F0EE
:106CC00001FB68433F18A770F7780A21380006F0E7
:106CD000F9FA68433F18E770B7780A21380006F0E0
:106CE000F1FA68433F182771002773780A211800CA
:106CF0000293677106F0E6FA6843029B367818182B
:106D0000A0710A21300006F0DDFA45430398751999
:106D1000E571019700970123210008220068FEF722
:106D200018FC3A000221039800F068F807B0F0BDA3
:106D30000323F0B589B006AC2370002305000800DA
:106D40000193073300932100230001220068FEF71E
:106D500067FC7F20A678A1796279E3786778247848
:106D600020400624059064421811604384461011A7
:106D70006043634484460811604362448446FA20B9
:106D80006144C000C9B209180598DBB20011604324
:106D900084460598D2B26044C0B202903811604374
:106DA0003F18301144433419FFB2E4B22800019770
:106DB000009400F089F8280009B0F0BD30B5012337
:106DC00004000D4D8B4206D228780133121892B27E
:106DD000DBB20135F6E7022903D9A30701D101325D
:106DE00092B26E23FF336343E01C013B8010C01856
:106DF000101880B230BDC046E45601001FB56B4686
:106E000019735A730023019300930222013303A9DB
:106E10000068FEF79EFB05B000BD0000F8B5274BEB
:106E20000400CD1828003C2106F0D2FA2800617138
:106E30003C2106F047FA3C21050006F0C9FA28007B
:106E400021713C2106F03EFA1821050006F0C0FA37
:106E50002800E170182106F035FA00230326184DAA
:106E600080B223702278110031404F424F41FBB273
:106E70006E37FF37B84205D3EB1AC018013280B223
:106E80002270EFE701230F4D637063780B2B10D84E
:106E9000EA18013A1278002903D1022B01D10132FC
:106EA000D2B296B2824204D8801B013380B26370A2
:106EB000EBE70130A0702000F8BDC04680BC92C74F
:106EC00093FEFFFFE4560100F0B5FA2705AC2678E3
:106ED00006AC257807AC2478FF00B94202D3054FF1
:106EE000C91989B2C670057101704270837044710E
:106EF000F0BDC04630F8FFFF10B50400827841783D
:106F00000078FFF75BFF18234343E07822791B18D2
:106F10003C2043439B185843024A63799B18C0188E
:106F200010BDC04680436D38437802781B021A4377
:106F30008378C0781B04134300061843704770B56C
:106F400005000C00081E07D00AF02CFB2B6802007D
:106F5000210028005B68984770BD10B504002430FC
:106F600001F0DBFC002801D1002010BD8D239B0027
:106F7000E01801F0D2FC0028F6D020680368DB6935
:106F80009847F2E7020070B505690400290080689F
:106F9000103201F015F800280AD0A378002D08D18E
:106FA00040221343A3708023A2785B421343A37053
:106FB00070BD22690135AA42F5D040229343F1E722
:106FC000F7B502784023150004001D401A4202D094
:106FD00000263000FEBD174B42699A42F8D8FFF7F1
:106FE000D1FF061EF4D0A26823699179023B8B4041
:106FF00080275269BF009B180193A0680379AB42B8
:107000000ED9019B0522E918243001F0ACFC0028C0
:10701000DED03A000021013509F0E0F8EDB2ECE7EE
:10702000802382799B04934062691B0CD3186361AF
:10703000CFE7C046FFFD1F0010B5040080680A00BE
:107040002430A16901F08FFC002804D00F22A3880E
:1070500013405B01C01810BD70B500250378040013
:107060000E00AB420FD12422290009F0B7F8A66028
:10707000F379102B03D0202B07D00C2B03D1402306
:1070800001252370A570280070BD8023F8E7F0B5B6
:10709000837887B0040004910392DB076ED50378F0
:1070A0001A0732D5C36942699B1A039A9A4200D9DA
:1070B0000393039B019300230593019B002B00D1B5
:1070C000A4E0402562692378D705A068FF0D510A26
:1070D0002B4223D0036ACB188026A5680293B60002
:1070E000002F52D1019BB3424FD32A6B029B934294
:1070F0004BD080230199DB00994262D2A86A049A9E
:10710000036802991B69984772E05B06D1D58368D2
:1071100042695B895B019B1A9BB2C6E745792940AE
:107120000591002F08D1002906D1002A10D15BB2A9
:10713000002B0BDA036A2361A26823699179023B71
:107140008B4052699B18059A9B18C5E7236AF2E7A2
:1071500008222169134206D0A3783832134202D0A4
:1071600001312161E8E72200103200F052FE0028D0
:1071700004DBE1D12F222378934347D1022301205E
:10718000627840421343637043E0F31B019E9E42CA
:1071900000D91E00280000220299243001F0E3FBF0
:1071A0000028EBD0C1193200049809F00EF8049BB6
:1071B0009B19049363699B196361019B9B1B01935A
:1071C0007BE74021019B5F0A23780B4205D12B7995
:1071D00005995B1A9F4200D91F00029B7E029342D1
:1071E00009D9A86A049A036802995D693B00A84717
:1071F0000028DCD1C2E7029BDB199A42F1D22800B9
:10720000243001F08AFB0028EBD1B7E7039B019AF9
:10721000981A07B0F0BDF7B56B46DF1D01223900A3
:10722000040046690569FFF732FF012803D1387869
:1072300066612561FEBD01204042F9E7436937B52B
:10724000DD0504002D0F01D0002912D16B4601226B
:107250002000D91DFFF71BFF40B2012801D00020FC
:107260003EBD63691F33A0686D013430636140190E
:10727000F6E72033F7E7F7B50369040001930378D5
:107280000D00002B13D040690122884208D000294C
:1072900008D121612022A37865619343A3701F3A2E
:1072A0001000FEBD1A0706D5E2698A420BD2019B87
:1072B00000222361F4E75A0605D5A3685B895B01C8
:1072C0008B42E7D2F3E7A168A7788A796E1E09326C
:1072D000D2B2D6407F0603D5236A9E192661D9E72C
:1072E000471ED740BE4201D3002812D15BB2002B0B
:1072F0000DDA0B6A2361002ECCD022002169A06830
:10730000103200F086FD013E0028F4DCCFE7236A4E
:10731000F0E7F61BEFE7F7B50F0004001E0008AB1F
:107320001B78150000212422019308F057FFB8684C
:107330003B6A0F22E3600300A580154034336D01E2
:10734000A0605D19EB7A073A134247D137210B4011
:107350002370EF7A1F390F4201D113432370019B31
:107360000322E37033001340012B31D0022B06D0EF
:10737000002B33D1730531D40123A37000E0A27038
:10738000A1788B0707D52378DA0627D4DA0725D426
:1073900020221A432270082333400B43A370036B4F
:1073A000A3616B7D297D1B02EA7E1943AB7E12022D
:1073B000090413431943730514D500290AD1802306
:1073C000A2785B421343A370730418D40120FEBD5E
:1073D0000223D2E700F032FE0028F0D10020207016
:1073E000A070F4E721626A7F2B7F12021A43AB7F01
:1073F0001B041A43EB7F1B061343E361E4E7200001
:10740000E169FFF738FF0028E0D1E7E7F7B5037837
:1074100005000120002B0DD0AB787F2B40D9010057
:107420002800FFF709FE041E05D1012300206A7819
:1074300013436B70FEBD0378E52BF6D037222B7813
:107440001340C3722B781B0707D5EB691A0A037721
:1074500042771A0C1B0E8277C3772B6AA3761B1216
:10746000E3762B6A1B0C23751B1263750F4B1B688D
:10747000002B11D06A4601AF961D3100033238004F
:1074800098473B88DAB21B0A6376E3743388227626
:10749000A3751B12A274E3757F22AB781340AB7007
:1074A000A868FFF75AFD0028BFD0C3E7BC0E002034
:1074B00010B50400FFF7AAFF00232370A37010BDCE
:1074C000F0B51E00002395B002AD01920BAA2B80EF
:1074D000AB709381037804000F00002B02D00020D2
:1074E00015B0F0BD2F220B789343F8D0019B1B7889
:1074F000934213D1019B1A782F2A02D101330193B1
:10750000F8E7B968002A03D12000FFF7A5FDE7E7F7
:107510002800FFF7A1FD0028E1D02F0020000199ED
:1075200001AB0BAA00F0FEFB0028D8D0019B1B7812
:10753000002B13D00023390020000BAA00F0ACFA76
:107540000028CCD02A00230083CB83C283CB83C204
:1075500083CB83C22000FFF7ABFFDEE733003900A7
:1075600020000BAA00F098FABAE7000010B504005A
:107570000020814204D0034809182000FFF7A0FF33
:1075800010BDC04644040000F7B5837804000091A4
:1075900001929A0707D51B070CD46369019ADB4354
:1075A0001600934258D2012362781343637000237C
:1075B0000193B8E0C169FFF75EFE0028EDD1F2E764
:1075C00022006046103200F024FC0028EBDB5FD183
:1075D0002000FFF7D7FC00285AD1E4E7236A002BEC
:1075E00007D12000FFF7CEFC0028DCD023692362FE
:1075F0004EE023614CE080239B0037005B1B9E42E2
:1076000000D91F000122002D0AD1636904329C4673
:10761000E3699C4504D2A378043A9B0600D5043262
:10762000243001F0A0F90028BDD040193A0000999B
:1076300008F0CBFD80237D199B009D4205D1A068F9
:10764000243001F06AF90028ADD06369F61BDB191C
:107650006361009BDB1900936369002E55D0A2681B
:10766000DD059446614649795A0A0F00ED0D174031
:1076700011420DD1002D0BD121690029AED040203F
:10768000A27802429CD0E2699A4299D901312161E3
:10769000A0682369991E837999404369C918C9195B
:1076A000002DA8D180239B009E42A4D38023026B8F
:1076B000DB009E4211D2914204D1431DDD770123AC
:1076C0005B420363806A009A03681B6A984700283C
:1076D00000D168E78027BF00B7E70379750ADB1B95
:1076E000AB4200D92B005F02914208D8CD189542D9
:1076F00005D90025421DD577012252420263806AD6
:107700000268556A009AA8479DE7E2699A4206D244
:10771000E3618023A2785B421343A37003E0034B31
:107720001B68002BF5D10198FEBDC046BC0E0020A1
:107730000100030000200B314208C00110431A78F9
:1077400001338018C0B28B42F6D1704710B54901A1
:107750000400FFF790FD0021884203D02000FFF7CE
:107760006DFD0100080010BDF0B591B0039107A9AF
:107770001500049302000B00029013CA13C313CA2E
:1077800013C313CA13C32B6801276B600023AB819B
:10779000049B9F4231D8039B07A8D91B89B2FFF7EE
:1077A000D5FF0190002802D1002011B0F0BD0026C5
:1077B00032000199029800F007FBAB890400002B0E
:1077C00007D16B68AA68934203D160426041C0B29E
:1077D000EBE7280001F004F90590200001F074F9AE
:1077E0000400059801F070F98442DDD10136F6B24B
:1077F0000D2EDDD10137FFB2CAE70120D5E7000029
:10780000F0B58FB0170005AA01931300029116C8B6
:1078100016C316C816C316C816C338001630FFF7AD
:1078200087FF3B6801267B6000230390BB810093A8
:10783000019B9E4249D8029B05A8991B89B2FFF77C
:1078400085FF002842D00121079B0533DA7F0A43D8
:10785000DA77019A3300964201D140233343037013
:107860000F230025C372039B057343738576C5768A
:10787000441CB889002817D17B68BA68934213D199
:10788000009B002B14D00133DBB21148009303128C
:10789000042D10D8207063700135EDB202340D2D27
:1078A000E7D10136F6B2C3E7380001F099F8EEE708
:1078B00001230093EBE7C0B2DBB20A2D02D8E070DF
:1078C0002371E9E76071A371E6E701200FB0F0BD15
:1078D000FFFF0000F0B5836885B003930300202408
:1078E00002000168163321301C7001338342FBD142
:1078F00008782E38431E9841C0B20B782E2B01D148
:107900000131FAE7039B013B0193019B8B4204D9B0
:107910001B782E2B01D0019BF5E7072300259C4601
:1079200001332C001F000295039B994251D20B7822
:107930002E2B08D1019B8B4212D10A239C46063381
:1079400008261F001EE0222B0AD07C2B08D01E0028
:107950005B3E022E04D93136052E06D82D2B14D0CD
:10796000644514D800205F2322E01E003A3E052E15
:1079700002D919365D2E08D93F2026008343002006
:10798000802BEDD134000131CEE7644509D963463F
:107990000A2B1DD0019B8B421AD326000020591EB2
:1079A000F0E71E00613E192E0AD8203BDBB23D43B2
:1079B000661CF6B21419A375062EE3D81675E1E716
:1079C0001E00413E192EF3D8029E3E430296EFE779
:1079D0000020937D202B11D0002806D0029B1D4251
:1079E00000D00225557505B0F0BD0120137D5075FE
:1079F000D2187E2393754D3BD375F4E70020F2E750
:107A00006223F7B507000D0000260C7D019304F0FA
:107A1000DBFE3618B6B2231C032C00D90323DCB2DC
:107A2000231DDBB20F22324011003731092A01D861
:107A300030321100EA18013BDBB2917536099C42E5
:107A4000F0D17E222B19002138009A75FFF713FC24
:107A500001213800FFF7F2FB011E04D17878434280
:107A60005841C0B2FEBD0378002B12D00822C37A61
:107A70001342EDD128000332163008F098FB00289D
:107A8000E6D101980138C3B20193002BBFD1180091
:107A9000E8E70120E6E70000F0B516002F228FB0DE
:107AA00006930B780F000B90934302D100200FB088
:107AB000F0BD0B9B1B78002BF8D130690D210C30E9
:107AC00005F000FC0122C3B20993737D04929B0769
:107AD00003D0099B9B18DBB20493BB6800213800DC
